{
  "contractName": "MyContract",
  "abi": [
    {
      "inputs": [
        {
          "internalType": "address",
          "name": "_owner",
          "type": "address"
        },
        {
          "internalType": "string",
          "name": "_feature",
          "type": "string"
        },
        {
          "internalType": "string",
          "name": "_info",
          "type": "string"
        }
      ],
      "stateMutability": "nonpayable",
      "type": "constructor"
    },
    {
      "anonymous": false,
      "inputs": [
        {
          "indexed": false,
          "internalType": "string",
          "name": "",
          "type": "string"
        }
      ],
      "name": "IPFShashSetted",
      "type": "event"
    },
    {
      "anonymous": false,
      "inputs": [
        {
          "indexed": false,
          "internalType": "address",
          "name": "",
          "type": "address"
        },
        {
          "indexed": false,
          "internalType": "string",
          "name": "",
          "type": "string"
        }
      ],
      "name": "ItemBought",
      "type": "event"
    },
    {
      "anonymous": false,
      "inputs": [
        {
          "indexed": false,
          "internalType": "address",
          "name": "",
          "type": "address"
        },
        {
          "indexed": false,
          "internalType": "address",
          "name": "",
          "type": "address"
        }
      ],
      "name": "ItemChangeOwner",
      "type": "event"
    },
    {
      "anonymous": false,
      "inputs": [],
      "name": "ItemConfirm",
      "type": "event"
    },
    {
      "anonymous": false,
      "inputs": [
        {
          "indexed": false,
          "internalType": "string",
          "name": "",
          "type": "string"
        },
        {
          "indexed": false,
          "internalType": "string",
          "name": "",
          "type": "string"
        }
      ],
      "name": "ItemOnChain",
      "type": "event"
    },
    {
      "anonymous": false,
      "inputs": [
        {
          "indexed": false,
          "internalType": "uint256",
          "name": "",
          "type": "uint256"
        }
      ],
      "name": "ItemOnSell",
      "type": "event"
    },
    {
      "anonymous": false,
      "inputs": [],
      "name": "ItemRevet",
      "type": "event"
    },
    {
      "inputs": [],
      "name": "IPFShash",
      "outputs": [
        {
          "internalType": "string",
          "name": "",
          "type": "string"
        }
      ],
      "stateMutability": "view",
      "type": "function"
    },
    {
      "inputs": [],
      "name": "feature",
      "outputs": [
        {
          "internalType": "string",
          "name": "",
          "type": "string"
        }
      ],
      "stateMutability": "view",
      "type": "function"
    },
    {
      "inputs": [],
      "name": "info",
      "outputs": [
        {
          "internalType": "string",
          "name": "",
          "type": "string"
        }
      ],
      "stateMutability": "view",
      "type": "function"
    },
    {
      "inputs": [],
      "name": "owner",
      "outputs": [
        {
          "internalType": "address",
          "name": "",
          "type": "address"
        }
      ],
      "stateMutability": "view",
      "type": "function"
    },
    {
      "inputs": [],
      "name": "price",
      "outputs": [
        {
          "internalType": "uint256",
          "name": "",
          "type": "uint256"
        }
      ],
      "stateMutability": "view",
      "type": "function"
    },
    {
      "inputs": [],
      "name": "state",
      "outputs": [
        {
          "internalType": "enum MyContract.State",
          "name": "",
          "type": "uint8"
        }
      ],
      "stateMutability": "view",
      "type": "function"
    },
    {
      "inputs": [],
      "name": "tempOwner",
      "outputs": [
        {
          "internalType": "address",
          "name": "",
          "type": "address"
        }
      ],
      "stateMutability": "view",
      "type": "function"
    },
    {
      "inputs": [],
      "name": "tempinfo",
      "outputs": [
        {
          "internalType": "string",
          "name": "",
          "type": "string"
        }
      ],
      "stateMutability": "view",
      "type": "function"
    },
    {
      "inputs": [],
      "name": "getInfo",
      "outputs": [
        {
          "internalType": "address",
          "name": "",
          "type": "address"
        },
        {
          "internalType": "string",
          "name": "",
          "type": "string"
        },
        {
          "internalType": "string",
          "name": "",
          "type": "string"
        },
        {
          "internalType": "string",
          "name": "",
          "type": "string"
        },
        {
          "internalType": "enum MyContract.State",
          "name": "",
          "type": "uint8"
        },
        {
          "internalType": "uint256",
          "name": "",
          "type": "uint256"
        }
      ],
      "stateMutability": "view",
      "type": "function"
    },
    {
      "inputs": [
        {
          "internalType": "address",
          "name": "_newOwner",
          "type": "address"
        }
      ],
      "name": "changeOwner",
      "outputs": [],
      "stateMutability": "nonpayable",
      "type": "function"
    },
    {
      "inputs": [
        {
          "internalType": "string",
          "name": "_IPFShash",
          "type": "string"
        }
      ],
      "name": "setIPFShash",
      "outputs": [],
      "stateMutability": "nonpayable",
      "type": "function"
    },
    {
      "inputs": [
        {
          "internalType": "uint256",
          "name": "_price",
          "type": "uint256"
        }
      ],
      "name": "sell",
      "outputs": [],
      "stateMutability": "nonpayable",
      "type": "function"
    },
    {
      "inputs": [],
      "name": "revertSell",
      "outputs": [],
      "stateMutability": "nonpayable",
      "type": "function"
    },
    {
      "inputs": [
        {
          "internalType": "string",
          "name": "_newInfo",
          "type": "string"
        }
      ],
      "name": "buy",
      "outputs": [],
      "stateMutability": "payable",
      "type": "function"
    },
    {
      "inputs": [],
      "name": "confirm",
      "outputs": [],
      "stateMutability": "nonpayable",
      "type": "function"
    }
  ],
  "bytecode": "0x60806040523480156200001157600080fd5b506040516200260b3803806200260b833981810160405281019062000037919062000307565b826000806101000a81548173ffffffffffffffffffffffffffffffffffffffff021916908373ffffffffffffffffffffffffffffffffffffffff1602179055508160019081620000889190620005ec565b5080600290816200009a9190620005ec565b506000600760006101000a81548160ff02191690836002811115620000c457620000c3620006d3565b5b02179055507f7a436572d10801039b54b303de8a541845eaa7ea7a912f0b731e878e8d634ce160016002604051620000fe929190620007a3565b60405180910390a1505050620007de565b6000604051905090565b600080fd5b600080fd5b600073ffffffffffffffffffffffffffffffffffffffff82169050919050565b6000620001508262000123565b9050919050565b620001628162000143565b81146200016e57600080fd5b50565b600081519050620001828162000157565b92915050565b600080fd5b600080fd5b6000601f19601f8301169050919050565b7f4e487b7100000000000000000000000000000000000000000000000000000000600052604160045260246000fd5b620001dd8262000192565b810181811067ffffffffffffffff82111715620001ff57620001fe620001a3565b5b80604052505050565b6000620002146200010f565b9050620002228282620001d2565b919050565b600067ffffffffffffffff821115620002455762000244620001a3565b5b620002508262000192565b9050602081019050919050565b60005b838110156200027d57808201518184015260208101905062000260565b60008484015250505050565b6000620002a06200029a8462000227565b62000208565b905082815260208101848484011115620002bf57620002be6200018d565b5b620002cc8482856200025d565b509392505050565b600082601f830112620002ec57620002eb62000188565b5b8151620002fe84826020860162000289565b91505092915050565b60008060006060848603121562000323576200032262000119565b5b6000620003338682870162000171565b935050602084015167ffffffffffffffff8111156200035757620003566200011e565b5b6200036586828701620002d4565b925050604084015167ffffffffffffffff8111156200038957620003886200011e565b5b6200039786828701620002d4565b9150509250925092565b600081519050919050565b7f4e487b7100000000000000000000000000000000000000000000000000000000600052602260045260246000fd5b60006002820490506001821680620003f457607f821691505b6020821081036200040a5762000409620003ac565b5b50919050565b60008190508160005260206000209050919050565b60006020601f8301049050919050565b600082821b905092915050565b600060088302620004747fffffffffffffffffffffffffffffffffffffffffffffffffffffffffffffffff8262000435565b62000480868362000435565b95508019841693508086168417925050509392505050565b6000819050919050565b6000819050919050565b6000620004cd620004c7620004c18462000498565b620004a2565b62000498565b9050919050565b6000819050919050565b620004e983620004ac565b62000501620004f882620004d4565b84845462000442565b825550505050565b600090565b6200051862000509565b62000525818484620004de565b505050565b5b818110156200054d57620005416000826200050e565b6001810190506200052b565b5050565b601f8211156200059c57620005668162000410565b620005718462000425565b8101602085101562000581578190505b62000599620005908562000425565b8301826200052a565b50505b505050565b600082821c905092915050565b6000620005c160001984600802620005a1565b1980831691505092915050565b6000620005dc8383620005ae565b9150826002028217905092915050565b620005f782620003a1565b67ffffffffffffffff811115620006135762000612620001a3565b5b6200061f8254620003db565b6200062c82828562000551565b600060209050601f8311600181146200066457600084156200064f578287015190505b6200065b8582620005ce565b865550620006cb565b601f198416620006748662000410565b60005b828110156200069e5784890151825560018201915060208501945060208101905062000677565b86831015620006be5784890151620006ba601f891682620005ae565b8355505b6001600288020188555050505b505050505050565b7f4e487b7100000000000000000000000000000000000000000000000000000000600052602160045260246000fd5b600082825260208201905092915050565b600081546200072281620003db565b6200072e818662000702565b945060018216600081146200074c576001811462000763576200079a565b60ff1983168652811515602002860193506200079a565b6200076e8562000410565b60005b83811015620007925781548189015260018201915060208101905062000771565b808801955050505b50505092915050565b60006040820190508181036000830152620007bf818562000713565b90508181036020830152620007d5818462000713565b90509392505050565b611e1d80620007ee6000396000f3fe6080604052600436106100e85760003560e01c80638da5cb5b1161008a578063a6f9dae111610059578063a6f9dae114610294578063c19d93fb146102bd578063e4849b32146102e8578063e5c5097e14610311576100e8565b80638da5cb5b146101e857806398150a0114610213578063a035b1fe1461023e578063a2a12bfb14610269576100e8565b8063492cc769116100c6578063492cc7691461015a5780634f377720146101765780635a9b0b89146101a15780637022b58e146101d1576100e8565b80630c6d6d8b146100ed578063370158ea146101045780634315f0ea1461012f575b600080fd5b3480156100f957600080fd5b5061010261033a565b005b34801561011057600080fd5b5061011961049f565b60405161012691906110fb565b60405180910390f35b34801561013b57600080fd5b5061014461052d565b60405161015191906110fb565b60405180910390f35b610174600480360381019061016f9190611266565b6105bb565b005b34801561018257600080fd5b5061018b61072d565b60405161019891906110fb565b60405180910390f35b3480156101ad57600080fd5b506101b66107bb565b6040516101c896959493929190611380565b60405180910390f35b3480156101dd57600080fd5b506101e66109b7565b005b3480156101f457600080fd5b506101fd610bb6565b60405161020a91906113f6565b60405180910390f35b34801561021f57600080fd5b50610228610bda565b60405161023591906110fb565b60405180910390f35b34801561024a57600080fd5b50610253610c68565b6040516102609190611411565b60405180910390f35b34801561027557600080fd5b5061027e610c6e565b60405161028b91906113f6565b60405180910390f35b3480156102a057600080fd5b506102bb60048036038101906102b69190611458565b610c94565b005b3480156102c957600080fd5b506102d2610dbe565b6040516102df9190611485565b60405180910390f35b3480156102f457600080fd5b5061030f600480360381019061030a91906114cc565b610dd1565b005b34801561031d57600080fd5b5061033860048036038101906103339190611266565b610f92565b005b60008054906101000a900473ffffffffffffffffffffffffffffffffffffffff1673ffffffffffffffffffffffffffffffffffffffff163373ffffffffffffffffffffffffffffffffffffffff16146103c8576040517f08c379a00000000000000000000000000000000000000000000000000000000081526004016103bf9061156b565b60405180910390fd5b600160028111156103dc576103db6112f0565b5b600760009054906101000a900460ff1660028111156103fe576103fd6112f0565b5b1461043e576040517f08c379a0000000000000000000000000000000000000000000000000000000008152600401610435906115fd565b60405180910390fd5b60006006819055506000600760006101000a81548160ff0219169083600281111561046c5761046b6112f0565b5b02179055507fdb1ec9975004dc3c0822416fad4f2def569087a971a6a266425944f3752c07be60405160405180910390a1565b600280546104ac9061164c565b80601f01602080910402602001604051908101604052809291908181526020018280546104d89061164c565b80156105255780601f106104fa57610100808354040283529160200191610525565b820191906000526020600020905b81548152906001019060200180831161050857829003601f168201915b505050505081565b6001805461053a9061164c565b80601f01602080910402602001604051908101604052809291908181526020018280546105669061164c565b80156105b35780601f10610588576101008083540402835291602001916105b3565b820191906000526020600020905b81548152906001019060200180831161059657829003601f168201915b505050505081565b600160028111156105cf576105ce6112f0565b5b600760009054906101000a900460ff1660028111156105f1576105f06112f0565b5b14610631576040517f08c379a0000000000000000000000000000000000000000000000000000000008152600401610628906116ef565b60405180910390fd5b6006543414610675576040517f08c379a000000000000000000000000000000000000000000000000000000000815260040161066c90611781565b60405180910390fd5b8060039081610684919061194d565b5033600460006101000a81548173ffffffffffffffffffffffffffffffffffffffff021916908373ffffffffffffffffffffffffffffffffffffffff1602179055506002600760006101000a81548160ff021916908360028111156106ec576106eb6112f0565b5b02179055507f90ef69824bad96b7a310bb78760495850826ed8774a482c03fcd23134bd8b4783382604051610722929190611a1f565b60405180910390a150565b6005805461073a9061164c565b80601f01602080910402602001604051908101604052809291908181526020018280546107669061164c565b80156107b35780601f10610788576101008083540402835291602001916107b3565b820191906000526020600020905b81548152906001019060200180831161079657829003601f168201915b505050505081565b6000606080606060008060008054906101000a900473ffffffffffffffffffffffffffffffffffffffff16600160026005600760009054906101000a900460ff1660065484805461080b9061164c565b80601f01602080910402602001604051908101604052809291908181526020018280546108379061164c565b80156108845780601f1061085957610100808354040283529160200191610884565b820191906000526020600020905b81548152906001019060200180831161086757829003601f168201915b505050505094508380546108979061164c565b80601f01602080910402602001604051908101604052809291908181526020018280546108c39061164c565b80156109105780601f106108e557610100808354040283529160200191610910565b820191906000526020600020905b8154815290600101906020018083116108f357829003601f168201915b505050505093508280546109239061164c565b80601f016020809104026020016040519081016040528092919081815260200182805461094f9061164c565b801561099c5780601f106109715761010080835404028352916020019161099c565b820191906000526020600020905b81548152906001019060200180831161097f57829003601f168201915b50505050509250955095509550955095509550909192939495565b60008054906101000a900473ffffffffffffffffffffffffffffffffffffffff1673ffffffffffffffffffffffffffffffffffffffff163373ffffffffffffffffffffffffffffffffffffffff1614610a45576040517f08c379a0000000000000000000000000000000000000000000000000000000008152600401610a3c9061156b565b60405180910390fd5b600280811115610a5857610a576112f0565b5b600760009054906101000a900460ff166002811115610a7a57610a796112f0565b5b14610aba576040517f08c379a0000000000000000000000000000000000000000000000000000000008152600401610ab190611ae7565b60405180910390fd5b60008054906101000a900473ffffffffffffffffffffffffffffffffffffffff1673ffffffffffffffffffffffffffffffffffffffff166108fc479081150290604051600060405180830381858888f19350505050158015610b20573d6000803e3d6000fd5b50600360029081610b319190611b32565b50610b5d600460009054906101000a900473ffffffffffffffffffffffffffffffffffffffff16610c94565b6000600760006101000a81548160ff02191690836002811115610b8357610b826112f0565b5b02179055507f0fc39960d97adfb1c9a4139de774576ad0c3fff0706091144f71e0886b4a8a3960405160405180910390a1565b60008054906101000a900473ffffffffffffffffffffffffffffffffffffffff1681565b60038054610be79061164c565b80601f0160208091040260200160405190810160405280929190818152602001828054610c139061164c565b8015610c605780601f10610c3557610100808354040283529160200191610c60565b820191906000526020600020905b815481529060010190602001808311610c4357829003601f168201915b505050505081565b60065481565b600460009054906101000a900473ffffffffffffffffffffffffffffffffffffffff1681565b60008054906101000a900473ffffffffffffffffffffffffffffffffffffffff1673ffffffffffffffffffffffffffffffffffffffff163373ffffffffffffffffffffffffffffffffffffffff1614610d22576040517f08c379a0000000000000000000000000000000000000000000000000000000008152600401610d199061156b565b60405180910390fd5b806000806101000a81548173ffffffffffffffffffffffffffffffffffffffff021916908373ffffffffffffffffffffffffffffffffffffffff1602179055507f68583807a317f94fefa9db2e647649c1e0d38f4b12adc0005139b5bf344e79703360008054906101000a900473ffffffffffffffffffffffffffffffffffffffff16604051610db3929190611c1a565b60405180910390a150565b600760009054906101000a900460ff1681565b60008054906101000a900473ffffffffffffffffffffffffffffffffffffffff1673ffffffffffffffffffffffffffffffffffffffff163373ffffffffffffffffffffffffffffffffffffffff1614610e5f576040517f08c379a0000000000000000000000000000000000000000000000000000000008152600401610e569061156b565b60405180910390fd5b60006002811115610e7357610e726112f0565b5b600760009054906101000a900460ff166002811115610e9557610e946112f0565b5b14610ed5576040517f08c379a0000000000000000000000000000000000000000000000000000000008152600401610ecc90611cb5565b60405180910390fd5b600060058054610ee49061164c565b905011610f26576040517f08c379a0000000000000000000000000000000000000000000000000000000008152600401610f1d90611d21565b60405180910390fd5b806006819055506001600760006101000a81548160ff02191690836002811115610f5357610f526112f0565b5b02179055507f33ea8bb841a92a81aa831656994560c8e1deb1f02caaa3bfbfef0b59a864881081604051610f879190611411565b60405180910390a150565b60008054906101000a900473ffffffffffffffffffffffffffffffffffffffff1673ffffffffffffffffffffffffffffffffffffffff163373ffffffffffffffffffffffffffffffffffffffff1614611020576040517f08c379a00000000000000000000000000000000000000000000000000000000081526004016110179061156b565b60405180910390fd5b806005908161102f919061194d565b507fb5404b047eca283f4e897e98b368c5c5819d6da07b23fba954ac1b3e69a2173360056040516110609190611dc5565b60405180910390a150565b600081519050919050565b600082825260208201905092915050565b60005b838110156110a557808201518184015260208101905061108a565b60008484015250505050565b6000601f19601f8301169050919050565b60006110cd8261106b565b6110d78185611076565b93506110e7818560208601611087565b6110f0816110b1565b840191505092915050565b6000602082019050818103600083015261111581846110c2565b905092915050565b6000604051905090565b600080fd5b600080fd5b600080fd5b600080fd5b7f4e487b7100000000000000000000000000000000000000000000000000000000600052604160045260246000fd5b611173826110b1565b810181811067ffffffffffffffff821117156111925761119161113b565b5b80604052505050565b60006111a561111d565b90506111b1828261116a565b919050565b600067ffffffffffffffff8211156111d1576111d061113b565b5b6111da826110b1565b9050602081019050919050565b82818337600083830152505050565b6000611209611204846111b6565b61119b565b90508281526020810184848401111561122557611224611136565b5b6112308482856111e7565b509392505050565b600082601f83011261124d5761124c611131565b5b813561125d8482602086016111f6565b91505092915050565b60006020828403121561127c5761127b611127565b5b600082013567ffffffffffffffff81111561129a5761129961112c565b5b6112a684828501611238565b91505092915050565b600073ffffffffffffffffffffffffffffffffffffffff82169050919050565b60006112da826112af565b9050919050565b6112ea816112cf565b82525050565b7f4e487b7100000000000000000000000000000000000000000000000000000000600052602160045260246000fd5b600381106113305761132f6112f0565b5b50565b60008190506113418261131f565b919050565b600061135182611333565b9050919050565b61136181611346565b82525050565b6000819050919050565b61137a81611367565b82525050565b600060c08201905061139560008301896112e1565b81810360208301526113a781886110c2565b905081810360408301526113bb81876110c2565b905081810360608301526113cf81866110c2565b90506113de6080830185611358565b6113eb60a0830184611371565b979650505050505050565b600060208201905061140b60008301846112e1565b92915050565b60006020820190506114266000830184611371565b92915050565b611435816112cf565b811461144057600080fd5b50565b6000813590506114528161142c565b92915050565b60006020828403121561146e5761146d611127565b5b600061147c84828501611443565b91505092915050565b600060208201905061149a6000830184611358565b92915050565b6114a981611367565b81146114b457600080fd5b50565b6000813590506114c6816114a0565b92915050565b6000602082840312156114e2576114e1611127565b5b60006114f0848285016114b7565b91505092915050565b7f4f6e6c7920746865206f776e65722063616e2063616c6c20746869732066756e60008201527f6374696f6e2e0000000000000000000000000000000000000000000000000000602082015250565b6000611555602683611076565b9150611560826114f9565b604082019050919050565b6000602082019050818103600083015261158481611548565b9050919050565b7f54686520636f6e7472616374206d75737420626520696e2074686520466f725360008201527f616c6520737461746520746f2062652072657665727465642e00000000000000602082015250565b60006115e7603983611076565b91506115f28261158b565b604082019050919050565b60006020820190508181036000830152611616816115da565b9050919050565b7f4e487b7100000000000000000000000000000000000000000000000000000000600052602260045260246000fd5b6000600282049050600182168061166457607f821691505b6020821081036116775761167661161d565b5b50919050565b7f54686520636f6e7472616374206d75737420626520696e2074686520466f725360008201527f616c6520737461746520746f20626520626f756768742e000000000000000000602082015250565b60006116d9603783611076565b91506116e48261167d565b604082019050919050565b60006020820190508181036000830152611708816116cc565b9050919050565b7f5468652076616c75652073656e74206d75737420626520657175616c20746f2060008201527f7468652073616c652070726963652e0000000000000000000000000000000000602082015250565b600061176b602f83611076565b91506117768261170f565b604082019050919050565b6000602082019050818103600083015261179a8161175e565b9050919050565b60008190508160005260206000209050919050565b60006020601f8301049050919050565b600082821b905092915050565b6000600883026118037fffffffffffffffffffffffffffffffffffffffffffffffffffffffffffffffff826117c6565b61180d86836117c6565b95508019841693508086168417925050509392505050565b6000819050919050565b600061184a61184561184084611367565b611825565b611367565b9050919050565b6000819050919050565b6118648361182f565b61187861187082611851565b8484546117d3565b825550505050565b600090565b61188d611880565b61189881848461185b565b505050565b5b818110156118bc576118b1600082611885565b60018101905061189e565b5050565b601f821115611901576118d2816117a1565b6118db846117b6565b810160208510156118ea578190505b6118fe6118f6856117b6565b83018261189d565b50505b505050565b600082821c905092915050565b600061192460001984600802611906565b1980831691505092915050565b600061193d8383611913565b9150826002028217905092915050565b6119568261106b565b67ffffffffffffffff81111561196f5761196e61113b565b5b611979825461164c565b6119848282856118c0565b600060209050601f8311600181146119b757600084156119a5578287015190505b6119af8582611931565b865550611a17565b601f1984166119c5866117a1565b60005b828110156119ed578489015182556001820191506020850194506020810190506119c8565b86831015611a0a5784890151611a06601f891682611913565b8355505b6001600288020188555050505b505050505050565b6000604082019050611a3460008301856112e1565b8181036020830152611a4681846110c2565b90509392505050565b7f54686520636f6e7472616374206d75737420626520696e207468652050656e6460008201527f696e67436f6e6669726d6174696f6e20737461746520746f20626520636f6e6660208201527f69726d65642e0000000000000000000000000000000000000000000000000000604082015250565b6000611ad1604683611076565b9150611adc82611a4f565b606082019050919050565b60006020820190508181036000830152611b0081611ac4565b9050919050565b600081549050611b168161164c565b9050919050565b60008190508160005260206000209050919050565b818103611b40575050611c18565b611b4982611b07565b67ffffffffffffffff811115611b6257611b6161113b565b5b611b6c825461164c565b611b778282856118c0565b6000601f831160018114611ba65760008415611b94578287015490505b611b9e8582611931565b865550611c11565b601f198416611bb487611b1d565b9650611bbf866117a1565b60005b82811015611be757848901548255600182019150600185019450602081019050611bc2565b86831015611c045784890154611c00601f891682611913565b8355505b6001600288020188555050505b5050505050505b565b6000604082019050611c2f60008301856112e1565b611c3c60208301846112e1565b9392505050565b7f54686520636f6e7472616374206d75737420626520696e20746865204465666160008201527f756c7420737461746520746f20626520736f6c642e0000000000000000000000602082015250565b6000611c9f603583611076565b9150611caa82611c43565b604082019050919050565b60006020820190508181036000830152611cce81611c92565b9050919050565b7f49504653206669656c64206d757374206e6f7420626520656d7074792e000000600082015250565b6000611d0b601d83611076565b9150611d1682611cd5565b602082019050919050565b60006020820190508181036000830152611d3a81611cfe565b9050919050565b60008154611d4e8161164c565b611d588186611076565b94506001821660008114611d735760018114611d8957611dbc565b60ff198316865281151560200286019350611dbc565b611d92856117a1565b60005b83811015611db457815481890152600182019150602081019050611d95565b808801955050505b50505092915050565b60006020820190508181036000830152611ddf8184611d41565b90509291505056fea26469706673582212207f460132a4ceccc274de2aa285d8f01d9a8adbde17f70a4e98b2f745d128173964736f6c63430008130033",
  "immutableReferences": {},
  "source": "// SPDX-License-Identifier: GPL-3.0\r\npragma solidity ^0.8.0;\r\n\r\ncontract KeyValueStore {\r\n    \r\n    mapping(string => address) public store;\r\n    address[] public conAddress;\r\n    uint public length=0;\r\n\r\n   function setNewItem(string memory feature, string memory Info) public returns (address) {\r\n        require(store[feature] == address(0), \"Feature already exists\");\r\n        MyContract newContract = new  MyContract(msg.sender, feature, Info);\r\n        store[feature] = address(newContract);\r\n        conAddress.push(address(newContract));\r\n        length++;\r\n        return address(newContract);\r\n}\r\n\r\n    function findAddress(string memory feature) public view returns (address) {\r\n        return store[feature];\r\n    }\r\n\r\n    function getConAddress() public view returns (address[] memory) {\r\n        return conAddress;\r\n}\r\n}\r\n\r\ncontract MyContract {\r\n    address public owner;\r\n    string public feature;\r\n    string public info;\r\n    string public tempinfo;\r\n    address public tempOwner;\r\n    string public IPFShash;\r\n    uint public price;\r\n    enum State { Default, ForSale, PendingConfirmation }\r\n    State public state;\r\n    event ItemOnChain(string,string);\r\n    event ItemOnSell(uint);\r\n    event ItemBought(address,string);\r\n    event ItemConfirm();\r\n    event ItemChangeOwner(address,address);\r\n    event ItemRevet();\r\n    event IPFShashSetted(string);\r\n    constructor(address _owner ,string memory _feature, string memory _info) {\r\n        owner = _owner;\r\n        feature = _feature;\r\n        info = _info;\r\n        state = State.Default;\r\n        emit ItemOnChain(feature,info);\r\n    }\r\n\r\n    function getInfo() public view returns (address, string memory, string memory, string memory, State, uint ) {\r\n        return (owner, feature, info, IPFShash, state, price);\r\n    }\r\n\r\n    function changeOwner(address _newOwner) public {\r\n        require(msg.sender == owner, \"Only the owner can call this function.\");\r\n        owner = _newOwner;\r\n        emit ItemChangeOwner(msg.sender,owner);\r\n    }\r\n\r\n    function setIPFShash(string memory _IPFShash) public {\r\n        require(msg.sender == owner, \"Only the owner can call this function.\");\r\n        IPFShash = _IPFShash;\r\n        emit IPFShashSetted(IPFShash);\r\n    }\r\n\r\n    function sell(uint _price) public {\r\n        require(msg.sender == owner, \"Only the owner can call this function.\");\r\n        require(state == State.Default, \"The contract must be in the Default state to be sold.\");\r\n        require(bytes(IPFShash).length > 0, \"IPFS field must not be empty.\");\r\n        price = _price;\r\n        state = State.ForSale;\r\n        emit ItemOnSell(_price);\r\n    }\r\n\r\n    function revertSell() public {\r\n        require(msg.sender == owner, \"Only the owner can call this function.\");\r\n        require(state == State.ForSale, \"The contract must be in the ForSale state to be reverted.\");\r\n        price = 0;\r\n        state = State.Default ;\r\n        emit ItemRevet();\r\n    }\r\n\r\n    function buy(string memory _newInfo) public payable {\r\n        require(state == State.ForSale, \"The contract must be in the ForSale state to be bought.\");\r\n        require(msg.value == price, \"The value sent must be equal to the sale price.\");\r\n        tempinfo = _newInfo;\r\n        tempOwner= msg.sender;\r\n        state = State.PendingConfirmation;\r\n        emit ItemBought(msg.sender,_newInfo );\r\n    }\r\n\r\n    function confirm() public {\r\n        require(msg.sender == owner, \"Only the owner can call this function.\");\r\n        require(state == State.PendingConfirmation, \"The contract must be in the PendingConfirmation state to be confirmed.\");\r\n        payable(owner).transfer(address(this).balance);\r\n        info=tempinfo;\r\n        changeOwner(tempOwner);\r\n        state = State.Default;\r\n        emit ItemConfirm();\r\n    }\r\n}",
  "sourcePath": "D:\\graduatedesign\\code\\myplatform\\smartcontract\\contracts\\copyrightCom.sol",
  "compiler": {
    "name": "solc",
    "version": "0.8.19+commit.7dd6d404.Emscripten.clang"
  },
  "schemaVersion": "3.4.13",
  "updatedAt": "2023-04-25T08:03:44.550Z",
  "devdoc": {
    "kind": "dev",
    "methods": {},
    "version": 1
  },
  "userdoc": {
    "kind": "user",
    "methods": {},
    "version": 1
  }
}